:020000040800F2
:10000000301E002001010008CD1A0008CF1A000898
:10001000D31A0008D71A0008DB1A000800000000F5
:10002000000000000000000000000000DF1A0008CF
:10003000E11A000800000000E31A0008E51A0008B1
:100040001B0100081B0100081B0100081B01000820
:100050001B0100081B010008E71A00081B0100082B
:100060001B0100081B0100081B0100081B01000800
:100070001B0100081B0100081B0100081B010008F0
:100080001B0100081B0100081B0100081B010008E0
:100090001B0100081B0100081B010008771C000859
:1000A0001B0100081B0100081B0100081B010008C0
:1000B0001B0100081B0100081B0100081B010008B0
:1000C0001B0100081B0100081B0100081B010008A0
:1000D0001B0100081B0100081B0100081B01000890
:1000E000AD1B00081B0100081B010008DFF80CD045
:1000F00002F0F4FF00480047D5160008301E00202B
:100100000648804706480047FEE7FEE7FEE7FEE7B1
:10011000FEE7FEE7FEE7FEE7FEE7FEE70302000874
:10012000ED0000080CB50020019000906C480068BC
:1001300040F480306A49086000BF6948006800F4F4
:10014000003000900198401C0190009818B9019867
:10015000B0F5A06FF1D16248006800F4003010B132
:100160000120009001E0002000900098012843D178
:100170005C48006840F010005A4908600846006872
:1001800020F0030008600846006840F002000860A4
:1001900053484068524948600846406848600846ED
:1001A000406840F4806048600846406820F47C1055
:1001B00048600846406840F4E81048600846006817
:1001C00040F08070086000BF4548006800F0007093
:1001D0000028F9D04248406820F0030040494860B8
:1001E0000846406840F00200486000BF3C48406854
:1001F00000F00C000828F9D10CBD10B5FFF792FFF4
:1002000010BD10B53648006840F001003449086060
:10021000084640683449084031494860084600684B
:10022000324908402E4908600846006820F48020C2
:1002300008600846406820F4FE0048604FF41F0044
:100240008860FFF7DAFF4FF000602949086010BDB1
:1002500010B5002100200022214B5B6803F00C0147
:1002600021B1042906D0082928D107E0214B224CCE
:10027000236027E01F4B204C236023E0184B5B6872
:1002800003F47010164B5B6803F48032022303EB17
:10029000904022B9194B4343174C23600DE0104B9B
:1002A0005B6803F4003323B1144B4343124C2360C7
:1002B00003E0104B4343104C236003E00D4B0E4C06
:1002C000236000BF00BF064B5B68C3F303130C4CF5
:1002D000E15C094B1B68CB40074C236010BD00005C
:1002E00000100240002002400000FFF8FFFFF6FE71
:1002F00008ED00E000127A000000002000093D0037
:100300000400002031490143314A1160704770B543
:10031000002100230F22C47804B32D4C246804F478
:10032000E064C4F5E064210AC1F10403CA404478E2
:1003300004FA03F18478144021430901254C06781E
:10034000A155047804F01F050124AC4005786D1117
:10035000AD0005F1E025C5F8004109E0047804F09E
:100360001F050124AC401C4D0678761145F8264047
:1003700070BD1A4A0A400243154B1B1F1A60704792
:1003800039B1134A121D12680243114B1B1D1A602A
:1003900006E00F4A121D126882430D4B1B1D1A60A6
:1003A0007047042808D14FF0E021096941F00401A9
:1003B0004FF0E022116107E04FF0E021096921F0E0
:1003C00004014FF0E0221161704700000000FA05BF
:1003D0000CED00E000E400E080E100E080FFFF1FA2
:1003E00010B50446FA48844208D10121401500F0B6
:1003F0000DFF0021601500F009FF17E0F548844269
:1004000008D10121001500F001FF0021201500F0A6
:10041000FDFE0BE0F048844208D10121C80300F042
:10042000F5FE00214FF4004000F0F0FE10BD30B5A5
:100430000246002000235068E84C20400D790C68EB
:1004400044EA0524204350609068E54C2040D1E9FF
:1004500002542C434D7944EA450420439060D06A0D
:1004600020F470000C7C641EE4B2234340EA035085
:10047000D06230BD00210160017141718160C160B5
:1004800001210174704721B1826842F0010282604B
:1004900003E0826822F001028260704721B1826825
:1004A00042F48072826003E0826822F4807282608B
:1004B000704710B50023CBB21AB144681C434460A6
:1004C00002E044689C43446010BD816841F008012B
:1004D00081607047014600208A6802F008020AB174
:1004E000012000E000207047816841F00401816034
:1004F0007047014600208A6802F004020AB1012018
:1005000000E00020704721B1826842F4A0028260BE
:1005100003E0826822F4A002826070470146002056
:100520008A6802F480020AB1012000E000207047CE
:1005300010B50A4600210023416821F46041531E92
:1005400041EA4331416010BD21B1426842F400628A
:10055000426003E0426822F4006242607047F0B5F6
:1005600004460D4600200021092D11DDE068A5F1AB
:100570000A0606EB4607072606FA07F18843A5F1A7
:100580000A0606EB460603FA06F10843E0600CE0B3
:10059000206905EB4507072606FA07F1884305EBB6
:1005A000450603FA06F108432061072A0FDA606B5B
:1005B000561E06EB86071F2606FA07F18843561ECD
:1005C00006EB860605FA06F10843606322E00D2A71
:1005D0000FDA206BD61F06EB86071F2606FA07F1F7
:1005E0008843D61F06EB860605FA06F1084320630A
:1005F00010E0E06AA2F10D0606EB86071F2606FA58
:1006000007F18843A2F10D0606EB860605FA06F10E
:100610000843E062F0BD21B1826842F4801282603A
:1006200003E0826822F48012826070470146C86C41
:1006300080B2704766484C300068704721B142680C
:1006400042F48062426003E0426822F480624260C9
:10065000704721B1426842F48052426003E0426830
:1006600022F48052426070470A460021816821F4DA
:10067000E04111438160704721B1826842F4004239
:10068000826003E0826822F400428260704721B1F8
:10069000826842F40212826003E0826822F402124D
:1006A00082607047014600208A6802F400120AB195
:1006B000012000E000207047F0B5044615460020F8
:1006C00000220026092911DDE068A1F10A0707EBE5
:1006D000470C072707FA0CF29043A1F10A0707EB32
:1006E000470703FA07F21043E0600CE0206901EBD2
:1006F000410C072707FA0CF2904301EB410703FA7C
:1007000007F210432061A06BC0F30156EF1C06F105
:10071000010CA7EB0C0707EB870C1F2707FA0CF25D
:100720009043EF1C06F1010CA7EB0C0707EB8707C2
:1007300001FA07F21043A063F0BD10B50A4600218C
:100740000023816B21F44011531E41EA0351816360
:1007500010BD08B5002300930090009B0B4400934C
:10076000009B1A6008BD08B5024600200090009268
:1007700001F12800009B184400900098006880B2A6
:1007800008BD0A4600214168164B194011434160DB
:1007900070474162826270470A460021416821F039
:1007A0001F0111434160704740B109490831096890
:1007B00041F40001064A0832116007E0044908319B
:1007C000096821F40001024A0832116070470000F4
:1007D0000024014000280140003C0140FFFEF0FFE2
:1007E000FDF7F1FFFFFD3FFF0246002013680B40BD
:1007F0000BB1012000E000207047CA43026070473F
:1008000070B502460020002300240B125568CEB2BA
:1008100005EA060415681D4015B10CB1012000E081
:10082000002070BD00220A12D3430360704700000D
:1008300001684FF6FE7211400160002101604160C5
:100840008160C1608D49884208D18C490839496866
:1008500041F00F01894A083A51608AE08749143112
:10086000884208D185490839496841F0F001834A36
:10087000083A51607DE081492831884208D17F499A
:100880000839496841F470617C4A083A516070E067
:100890007A493C31884208D178490839496841F49D
:1008A0007041764A083A516063E074495031884299
:1008B00008D172490839496841F470216F4A083AF1
:1008C000516056E06D496431884208D16B4908395E
:1008D000496841F47001694A083A516049E0674942
:1008E0007831884208D165490839496841F070611A
:1008F000624A083A51603CE06149884206D1011FD2
:10090000096841F00F01021F116032E05C491431A7
:10091000884208D15A49091F096841F0F001584A34
:10092000121F116025E056492831884208D15449E8
:10093000091F096841F47061514A121F116018E0E3
:100940004F493C31884208D14D49091F096841F49B
:1009500070414B4A121F11600BE0494950318842E7
:1009600007D14749091F096841F47021444A121F01
:100970001160704710B50022026847F6F0739A4381
:100980000C6A8B6823430C6923434C6923438C69AD
:100990002343CC6923434C6A23438C6A23431A4381
:1009A0000260CB6843600B6883604B68C36010BD16
:1009B0000021016041608160C1600161416181612C
:1009C000C161016241628162704721B1026842F0F7
:1009D0000102026004E002684FF6FE731A400260F2
:1009E00070471AB103680B43036002E003688B434E
:1009F00003607047416070470146486880B27047A5
:100A000001460020002201F080531BB11C4B083B23
:100A10001A6802E0194B083B1A6802EA01030BB19D
:100A2000012000E00020704700F0805119B1144906
:100A3000091F086002E01149083948607047014603
:100A40000020002201F080531BB10D4B083B1A68B7
:100A500002E00A4B083B1A6802EA01030BB10120CD
:100A600000E00020704700F0805119B10449091FCF
:100A7000086002E0014908394860704708000240F8
:100A800008040240002044490860091D0860091D4F
:100A90000860091D086041483F49143108607047EB
:100AA00000213D498279002A3AD00A46126803683B
:100AB0009A430B461A600A1D126803689A430B1D7D
:100AC0001A60027911440A6803681A430A60324ABC
:100AD0000832126803689A432F4B08331A601A1DB4
:100AE000126803689A432C4B0C331A604279102A1F
:100AF0000ED11A1F126803681A43274B08331A6075
:100B00001A1D126803681A43234B0C331A600DE058
:100B10002149427911440A6803681A430A6005E0D2
:100B2000027911440A6803689A430A6070470021F9
:100B3000016001710C2141710021817170471649DA
:100B4000103109680143144A1032116070470146A0
:100B50000020114A143212680A400AB1012000E054
:100B6000002070470C49143108607047014600208E
:100B70000022094B1B6803EA0102074B14331B6870
:100B80000B4013B10AB1012000E000207047024978
:100B9000143108607047000000040140FFFF0F009F
:100BA00010B50446CC48844208D10121042000F04D
:100BB0002DFB0021042000F029FB46E0C7488442B9
:100BC00008D10121082000F021FB0021082000F0BD
:100BD0001DFB3AE0C248844208D10121102000F0F8
:100BE00015FB0021102000F011FB2EE0BD488442CF
:100BF00008D10121202000F009FB0021202000F075
:100C000005FB22E0B848844208D10121402000F0D1
:100C1000FDFA0021402000F0F9FA16E0B3488442C2
:100C200008D10121802000F0F1FA0021802000F09D
:100C3000EDFA0AE0AE48844207D10121801500F0A8
:100C4000E5FA0021A01500F0E1FA10BD10B5012170
:100C5000084600F0DBFA0021012000F0D7FA10BDB1
:100C60002DE9F04102460025002600200023002443
:100C7000002791F803C00CF00F0591F803C00CF0A9
:100C8000100CBCF1000F03D091F802C04CEA05052E
:100C900091F800C0BCF1000F31D0146800202BE0A7
:100CA0004FF0010C0CFA00F3B1F800C00CEA030697
:100CB0009E4220D183004FF00F0C0CFA03F7BC4387
:100CC00005FA03FC4CEA040491F803C0BCF1280FB8
:100CD00006D14FF0010C0CFA00FCC2F814C00AE077
:100CE00091F803C0BCF1480F05D14FF0010C0CFA8C
:100CF00000FCC2F810C0401C0828D1D31460B1F821
:100D000000C0BCF1FF0F34DD546800202EE000F17C
:100D1000080C4FF0010808FA0CF3B1F800C00CEA17
:100D200003069E4221D183004FF00F0C0CFA03F70B
:100D3000BC4305FA03FC4CEA040491F803C0BCF17F
:100D4000280F05D100F1080C08FA0CF8C2F814803D
:100D500091F803C0BCF1480F07D100F1080C4FF027
:100D6000010808FA0CF8C2F81080401C0828CED3FD
:100D70005460BDE8F0814FF6FF710180022181705F
:100D80000421C17070470246002093680B400BB1EC
:100D9000012000E0002070470146886880B270475B
:100DA00002460020D3680B400BB1012000E0002078
:100DB00070470146C86880B2704701617047416161
:100DC00070470AB1016100E041617047C16070473E
:100DD0004FF480320A438261816182618269826953
:100DE000704702460020434B18684FF68073184046
:100DF00040EA021008433F4B186070473E49C86103
:100E00007047F0B50A46002300240021002500F0B9
:100E10000046B6F1004F02D1364EF16901E0354E81
:100E20007168C0F3034583B200F44016B6F5401F65
:100E300008D121F070612F4E766826F070662D4F34
:100E40007E6012E000F48016B6F5801F06D10326FE
:100E500006FA05F4A14341F0706106E0460D360143
:100E600003FA06F6B14341F0706122B1460D360136
:100E700003FA06F6314300F00046B6F1004F02D106
:100E80001C4EF16101E01B4E7160F0BD30B50022D7
:100E90008B071C0F0F2303FA04F2164B08338C1038
:100EA00053F824309343134C08348D1044F8253004
:100EB00023468C1053F824308C07240F00FA04F4D6
:100EC00023430C4C08348D1044F8253030BD0A49BA
:100ED000DC3108607047000000080140000C014050
:100EE000001001400014014000180140001C0140A6
:100EF000002001400000014000002042DF4800685F
:100F000040F00100DD49086008464068DC490840BF
:100F1000DA49486008460068DA490840D74908605D
:100F20000846006820F4802008600846406820F4E5
:100F3000FE0048604FF41F0088607047CF49096881
:100F400021F48031CD4A11601146096821F48021D5
:100F50001160B0F5803F03D0B0F5802F0ED106E0D0
:100F6000C649096841F48031C44A116007E0C349A9
:100F7000096841F4A021C14A116000E000BF00BF30
:100F8000704710B501460022002300204A11012AB3
:100F900002D1BA4C236806E0022A02D1B74C236A78
:100FA00001E0B64C636A01F01F02012494401C402A
:100FB0000CB1012000E0002010BD38B500200090E9
:100FC0000024002500BF3120FFF7DBFF0546009815
:100FD000401C00900098B0F5A06F01D0002DF2D019
:100FE0003120FFF7CEFF08B1012400E000242046A5
:100FF00038BD01460020A14A106820F0F80040EA00
:10100000C10010607047A049086070470246002088
:101010009A4B586820F47C1042EA01031843974B1E
:101020005860704798490866704701460020934A07
:10103000506820F003000843506070478F484068B4
:1010400000F00C007047014600208C4A506820F0E8
:10105000F00008435060704701460020874A5068FE
:1010600020F4E06008435060704701460020834A46
:10107000506820F4605040EAC1005060704729B1C8
:101080007E4A527A02437D4B5A7204E07B4A527A7E
:1010900082437A4B5A7270477B49D8310860704757
:1010A00001460020754A506820F4404008435060D3
:1010B00070470021714A20321170704A82F8201066
:1010C000012802D004280AD104E001216B4A203211
:1010D000117005E00521694A2032117000E000BF5F
:1010E00000BF70476949086070476449096A014355
:1010F000624A11627047654944390860704730B5EB
:1011000000210022002400235C4D6D6805F00C01D5
:1011100021B1042905D0082923D105E05C4D0560E3
:1011200022E05B4D05601FE0544D6D6805F47012C0
:10113000524D6D6805F48034022505EB92421CB9CE
:10114000544D554305600BE04C4D6D6805F400357A
:101150001DB1504D5543056002E04D4D55430560AE
:1011600002E04B4D056000BF00BF444D6D6805F0C7
:10117000F0010909484D6B5C0568DD4045603F4D55
:101180006D6805F4E061090A434D6B5C4568DD401C
:1011900085603A4D6D6805F46051C90A3E4D6B5C3F
:1011A0004568DD40C560354D6D6805F44041890BEB
:1011B0003A4D6B5CC568B5FBF3F5056130BD29B1EF
:1011C0002E4A526902432D4B5A6104E02B4A526960
:1011D00082432A4B5A61704729B1284A92690243D7
:1011E000264B9A6104E0254A92698243234B9A6117
:1011F000704729B1214AD2690243204BDA6104E0E9
:101200001E4AD26982431D4BDA61704729B11B4ADD
:10121000D2680243194BDA6004E0184AD26882436C
:10122000164BDA60704729B1144A12690243134B16
:101230001A6104E0114A12698243104B1A61704727
:1012400012494039086070470F49C86470470B491C
:10125000C87170470948406A40F080700749486289
:10126000704701460020054A92680A400AB10120F1
:1012700000E000207047014988727047001002406A
:101280000000FFF8FFFFF6FE0000424280044242E9
:1012900000127A0000093D00140000202400002004
:1012A00010B50446FB48844209D101218803FFF7A9
:1012B000ADFF00214FF48040FFF7A8FF32E0F64871
:1012C000844209D101214804FFF7ADFF00214FF40A
:1012D0000030FFF7A8FF25E0F048844209D1012142
:1012E0008804FFF7A0FF00214FF48020FFF79BFF49
:1012F00018E0EB48844209D10121C804FFF793FFAD
:1013000000214FF40020FFF78EFF0BE0E5488442F8
:1013100008D101210805FFF786FF00214FF4801056
:10132000FFF781FF10BD2DE9F04786B005460E4658
:101330000024A24600BFA1460027B08900B100BF2B
:101340002F462C8A4CF6FF700440F08804432C8210
:10135000AC894EF6F3100440B08831890843718996
:1013600008430443AC81AC8A4FF6FF400440B08987
:101370000443AC8201A8FFF7C2FEC648874202D1EF
:10138000DDF810A001E0DDF80CA0A88900F4004011
:1013900040B10AEBCA0000EB0A1031684900B0FB0B
:1013A000F1F807E00AEBCA0000EB0A103168890087
:1013B000B0FBF1F86420B8FBF0F0040120096421CF
:1013C00001FB1089A88900F4004040B1322000EBF5
:1013D000C900B0FBF1F000F00700044308E0322040
:1013E00000EB09106421B0FBF1F000F00F000443A2
:1013F0002C8106B0BDE8F0874FF416510160002142
:101400008180C18001810C2141810021818170474F
:1014100010B502460020108A4FF2FF0318400B88D7
:101420004C8823438C882343CC8823431843108261
:1014300010BD0021018041808180C180704721B1B1
:10144000828942F40052828104E082894DF6FF7362
:101450001A4082817047F0B503460024002600251B
:10146000002040F66A17B94200D100BF1846C1F308
:10147000421401F01F06012707FA06F5012C01D1DD
:101480000C3004E0022C01D1103000E014301AB10D
:1014900007682F43076002E00768AF430760F0BDAD
:1014A0001AB1838A0B43838202E0838A8B4383824F
:1014B0007047028A4FF6F0731A400282028A0A438A
:1014C0000282704782894FF2FF731A4082818289BB
:1014D0000A438281704721B1828942F002028281EF
:1014E00004E082894FF6FD731A4082817047028AB8
:1014F0004FF6DF731A400282028A0A430282704763
:1015000021B1028A42F48042028204E0028A4BF650
:10151000FF731A4002827047C1F30802828070474D
:1015200001468888C0F308007047818941F00101B5
:1015300081817047028BD2B20283028B42EA012280
:1015400002837047028B02F47F420283028B0A43BC
:101550000283704721B1828A42F02002828204E035
:10156000828A4FF6DF731A408282704721B1828AE5
:1015700042F01002828204E0828A4FF6EF731A4032
:101580008282704721B1828A42F00802828204E09E
:10159000828A4FF6F7731A408282704721B182899E
:1015A00042F40042828103E08289C2F30E0282810A
:1015B000704721B1828A42F40062828204E0828A0A
:1015C0004FF2FF731A4082827047828A4FF6FB7394
:1015D0001A408282828A0A438282704721B1828ABB
:1015E00042F00202828204E0828A4FF6FD731A40C2
:1015F0008282704702460020B1F5007F00D100BF13
:1016000013880B400BB1012000E00020704701F46B
:101610000072B2F5007F00D100BFCA43028070475C
:1016200070B50246002400230025002040F66A160B
:10163000B14200D100BFC1F3421501F01F030126E2
:1016400006FA03F3012D02D19689334006E0022DFC
:1016500002D1168A334001E0968A33400C120126EB
:1016600006FA04F41688344013B10CB1012000E0EE
:10167000002070BD10B50022002340F66A14A1427C
:1016800000D100BF0A1201249440A3B2DC430480BD
:1016900010BD0000003801400044004000480040F8
:1016A000004C00400050004008B501210420FFF725
:1016B00093FD1020ADF800008DF8030003208DF895
:1016C00002006946E648FFF7CBFA1021E448FFF72D
:1016D00076FB08BD08B500F01EFB00F07DFB00F0B6
:1016E0001BFC00F0ECFF002000F0BCFC002000F030
:1016F000C7FC00F01AFD01F057F9FFF7D5FF1023E2
:101700000F220021084600F0F9FE102300221146A6
:10171000122000F0F3FE102301220021242000F00B
:10172000EDFE102302220021362000F0E7FE1023F8
:1017300003220021482000F0E1FE102304221221A0
:10174000084600F0DBFE102301221221242000F0C5
:10175000D5FE102302221221362000F0CFFE1023E6
:1017600003221221482000F0C9FE00F0BBFC00BF9C
:10177000BC4800680128FBD00220BA490860102349
:1017800005221221002000F0B9FE102306221221AA
:10179000084600F0B3FE102307221221242000F097
:1017A000ADFE102308221221362000F0A7FE1023E0
:1017B00011221221482000F0A1FE1023122211460E
:1017C0005A2000F09BFE10233A2212216C2000F0D8
:1017D000ADFD102002230090A3482421026836208A
:1017E00000F052FE102325222421482000F09EFD07
:1017F00000F078FC00BF9B4800680228FBD02EE177
:101800009A480068000C9A490880984800689949ED
:1018100008800988C1F5805001F05FFA05464FF055
:101820008B4101F003F90446934901F0CDF8934947
:1018300008600846006801F072FA044622460B462A
:101840008FA001F099FC8A48008801F04FFA814688
:101850004FF08B4101F0EAF8044601F060FA0746C8
:101860004FF066328C4B01F0C6F9054601F06AFA7A
:101870008A4908600846006801F051FA8046884AA3
:10188000884B01F0B8F906460022874B01F0B0F909
:10189000044601F057FA854908600846006801F0DF
:1018A0003EFA044622460B4681A001F065FC102357
:1018B00005220021084600F021FE10230622002107
:1018C000122000F01BFE102307220021242000F02C
:1018D00015FE102308220021362000F00FFE1023F1
:1018E0003A220021482000F021FD6448006801F000
:1018F00002FA0446102002232246002100905A20BA
:1019000000F0C2FD1023252200216C2000F00EFD06
:10191000102309221221002000F0F0FD10230A22DA
:101920001221084600F0EAFD10230B221221242088
:1019300000F0E4FD102308221221362000F0DEFD25
:1019400010233A221221482000F0F0FC574800688A
:1019500001F0D1F904461020022322461221009002
:101960005A2000F091FD00F0BDFB3F48006801F0F7
:10197000B4F9044641480168204601F009FA31D81B
:1019800051480068012825D110230C22242112205F
:1019900000F0B4FD10230D222421084600F0AEFD16
:1019A00010230E222421362000F0A8FD10231A4611
:1019B0002421482000F0A2FD10231A4624215A2099
:1019C00000F09CFD10231A4624216C2000F096FDA7
:1019D00000F088FB3C480068022803D11021204811
:1019E000FFF7EBF92048006801F077F90446234837
:1019F0000168204601F0C2F931D23348006801285D
:101A000025D1102313222421122000F077FD10236A
:101A100013222421084600F071FD102313222421F3
:101A2000362000F06BFD102313222421482000F003
:101A300065FD1023132224215A2000F05FFD10239E
:101A4000132224216C2000F059FD00F04BFB1E48AE
:101A50000068022803D110210148FFF7B0F9CFE652
:101A6000000801402C00002034000020A4150020B4
:101A7000380000203A0000200000C8423C0000204E
:101A8000536F696C48756D69646974793D252E32B0
:101A90006625250D0A00000066660A404400002005
:101AA0002EBAE8A28B2E124000002E4040000020EB
:101AB0004C6967687456616C75653D252E326620E9
:101AC0004C75780D0A00000028000020704700BF08
:101AD000FEE700BFFEE700BFFEE700BFFEE770477E
:101AE00070477047704708B50120FFF73FF800289E
:101AF0005BD075480068012840D17448006801280F
:101B00003CD102207149086000F00FFB10230F2226
:101B10001221002000F0F2FC1023002211461220B6
:101B200000F0ECFC102301220021242000F0E6FC50
:101B3000102302220021362000F0E0FC10230322B3
:101B40000021482000F0DAFC10230422122108466C
:101B500000F0D4FC102301221221242000F0CEFC3E
:101B6000102302221221362000F0C8FC1023032289
:101B70001221482000F0C2FC00F0B4FA524800687C
:101B800002280FD152480068401E514908601020B9
:101B900002230090084624210268362000F074FCDD
:101BA00000F0A0FA0120FEF7F2FF08BD08B54FF4DF
:101BB0008050FEF7DBFF00285CD043480068012816
:101BC00040D14248006802283CD101203F490860CA
:101BD00000F0ABFA10230F220021084600F08EFC23
:101BE000102300221146122000F088FC102301224D
:101BF0000021242000F082FC102302220021362044
:101C000000F07CFC102303220021482000F076FC29
:101C1000102304221221084600F070FC1023012238
:101C20001221242000F06AFC102302221221362007
:101C300000F064FC102303221221482000F05EFC17
:101C400000F050FA2048006802280FD120480068B0
:101C5000401C1F49086010200223009008462421E0
:101C60000268362000F010FC00F03CFA4FF480507F
:101C7000FEF78DFF08BD10B54020FEF777FF08B3D3
:101C80001148006801280ED100F04FFA04200E49D7
:101C900008600E480068012802D10E49086002E081
:101CA00002200C49086008480068022807D100F0AB
:101CB0003CFA0420044908600120044908604020DF
:101CC000FEF765FF10BD00002C0000203000002052
:101CD000340000202800002008B54FF4C060FEF753
:101CE00011FB06208DF8000001208DF801008DF811
:101CF00002008DF803006846FEF709FB28208DF8E6
:101D000000006846FEF703FB17208DF800006846C8
:101D1000FEF7FDFA08BD0EB501210520FFF75CFABC
:101D2000FFF7DAFF0120ADF8080004208DF80B0062
:101D300002A92848FEF794FF00210846FFF7A6F8FD
:101D40000120009000208DF8040008208DF8050087
:101D500001208DF806006846FEF7A2FE4FF4805081
:101D6000ADF8080004208DF80B0002A91948FEF711
:101D700077FF0C210020FFF789F84FF48050009086
:101D800000208DF804000C208DF8050001208DF84E
:101D900006006846FEF784FE4020ADF808000420E7
:101DA0008DF80B0002A90B48FEF75AFF0621002010
:101DB000FFF76CF84020009000208DF804000C2004
:101DC0008DF8050001208DF806006846FEF768FED4
:101DD0000EBD00000008014000B585B001210420BF
:101DE000FFF7FAF901218803FFF7F6F94FF40070C5
:101DF000ADF8100018208DF8130003208DF81200A4
:101E000004A94348FEF72CFF4FF48060ADF81000A2
:101E100004208DF8130004A93D48FEF721FF4FF47C
:101E2000E13000900020ADF80400ADF80600ADF8F8
:101E30000800ADF80C000C20ADF80A0069463548E2
:101E4000FFF771FA01213348FFF7F9FA05B000BD39
:101E500070B504460D4629462046FFF75DFB00BFDE
:101E600080212046FFF7C6FB0028F9D070BD70B571
:101E700006460C46002500BF615D3046FFF7E8FFCF
:101E80006D1C605D0028F7D100BF40213046FFF790
:101E9000B1FB0028F9D070BD2DE9F04105460C4694
:101EA000260AE7B231462846FFF736FB00BF8021FD
:101EB0002846FFF79FFB0028F9D039462846FFF750
:101EC0002BFB00BF80212846FFF794FB0028F9D0A8
:101ED000BDE8F08170B504460D46E1B20D48FFF74C
:101EE0001BFB00BF80210B48FFF784FB0028F9D0C3
:101EF000204670BD10B5044600BF20210548FFF7FD
:101F000079FB0028F9D00348FFF70AFB10BD000059
:101F1000000801400038014010B56FF00400FEF7E2
:101F200040FA2E4800682E49B0FBF1F02D490870A8
:101F30000846007800EB4001C1EBC0104FF6FF717E
:101F400001EAC0002849088010BD0146254A1278E0
:101F50004A434FF0E0235A6100229A611A461269FF
:101F600042F001021A6100BF4FF0E022106900F058
:101F700001021AB100F48032002AF5D04FF0E022BD
:101F8000126922F001024FF0E0231A6100229A61E7
:101F900070470146144A12884A434FF0E0235A61C1
:101FA00000229A611A46126942F001021A6100BFCA
:101FB0004FF0E022106900F001021AB100F4803203
:101FC000002AF5D04FF0E022126922F001024FF012
:101FD000E0231A6100229A6170470000000000208F
:101FE00000127A00480000204A00002070B5044624
:101FF0000E4626B10221F848FEF7DFFE03E002217B
:10200000F548FEF7DCFE4FF48051F348FEF7D7FEAB
:1020100000251BE04FF40051EF48FEF7D0FE04F01E
:10202000800028B14FF40041EB48FEF7C6FE04E003
:102030004FF40041E848FEF7C2FE4FF40051E64875
:10204000FEF7BBFE6006040E681CC5B2082DE1DB7E
:102050004FF48051E048FEF7B0FE0221DE48FEF763
:10206000ACFE70BD10B504461CB90021A620FFF7D8
:10207000BDFF012C03D10021A720FFF7B7FF10BD42
:1020800010B504463CB90021C820FFF7AFFF00217E
:10209000A120FFF7ABFF012C07D10021C020FFF7E3
:1020A000A5FF0021A020FFF7A1FF10BD10B5002162
:1020B0008D20FFF79BFF00211420FFF797FF0021E1
:1020C000AF20FFF793FF10BD10B500218D20FFF763
:1020D0008DFF00211020FFF789FF0021AF20FFF7BF
:1020E00085FF10BD70B500241CE004F1B001C8B23A
:1020F0000021FFF77BFF00210846FFF777FF002153
:102100001020FFF773FF002508E0B44901EBC5017B
:10211000085D0121FFF76AFF681CC5B2802DF4DB62
:10212000601CC4B2082CE0DB70BD70B500240CE06C
:10213000002506E00020A94901EBC5010855681CEF
:10214000C5B2802DF6DB601CC4B2082CF0DBFFF7B3
:10215000C9FF70BD70B50A46CE1701EB5676C6F3BF
:10216000C703CE1701EB5676F610A1EBC606F4B204
:102170000122A240D5B2994A02EBC002D25C2A43A6
:10218000964E06EBC006F25470BD70B50B46CE17E6
:1021900001EB5676C6F3C702CE1701EB5676F61062
:1021A000A1EBC606F4B20123A340DDB28B4B03EBD7
:1021B000C0039B5CDB43894E06EBC006B354874BE0
:1021C00003EBC0039B5C2B43844E06EBC006B35469
:1021D000824B03EBC0039B5CDB43804E06EBC006E7
:1021E000B35470BD2DE9F84F05460E461746984684
:1021F000002D0ADB802F08DC002E06DBB8F1400F33
:1022000003DCBD4201DC464501DDBDE8F88FBD427F
:102210000DD1002406E03019C1B22846FFF79AFF1D
:10222000601CC4B2A8EB0600A042F4DC30E04645D6
:102230000CD1002406E02919C8B23146FFF78AFF05
:10224000601CC4B2781BA042F5DC21E0A8EB0600BC
:1022500000F0FF0A781B00F0FF0B0AEB8A00400039
:1022600090FBFBF000F0FF0900240EE004FB09F0F6
:102270000A2190FBF1F03044C0B229190090C8B295
:102280000099FFF767FF601CC4B2781BA042EDDC29
:1022900000BFBAE72DE9F04306460F4690460025F9
:1022A00044463BE03A1BD1B27219D0B2FFF752FF5D
:1022B0003A1BD1B2721BD0B2FFF74CFF3A19D1B220
:1022C000721BD0B2FFF746FF3A19D1B27219D0B2E1
:1022D000FFF740FF7A19D1B23219D0B2FFF73AFFB7
:1022E0007A1BD1B23219D0B2FFF734FF7A1BD1B2C8
:1022F000321BD0B2FFF72EFF7A19D1B2321BD0B207
:10230000FFF728FF6D1C05FB05F004FB040008FB2C
:102310001809B9F1000F01DD641E6D1E60006043F5
:1023200008FB08F18842BDDABDE8F0832DE9FF4FD4
:1023300081B080460E461C4600962046E31704EB0B
:102340005373DB1021464FEAE47C04EB5C7C4FEADC
:10235000EC0CA4EBCC0CBCF1000F02D04FF0010C44
:1023600001E04FF0000C6344224604EBD27C4FEABC
:102370006C0C03FB0CF303F0FF0B03982038C7B27F
:10238000002551E00C2C07D107EB4700144901EB65
:10239000800010F805A014E0102C05D1114800EBC6
:1023A000071010F805A00CE0182C07D107EBC700A8
:1023B0000D4901EB800010F805A002E005B0BDE872
:1023C000F08F4FF0000929E00AF0800070B131462B
:1023D0004046FFF7BFFE0DE0000C0140AC150020A9
:1023E0006A3A0008DE3E0008CE4400083146404606
:1023F000FFF7CBFE4FEA4A604FEA106A701CC6B284
:102400000098301AA04205D1009E08F1010000F0AA
:10241000FF0806E009F1010000F0FF09B9F1080F1B
:10242000D2DB00BF681CC5B25D45ABDB00BFC5E7B2
:10243000F0B506460F4614461D4613E022782B469B
:1024400039463046FFF772FF284605EBD07106EBA0
:102450006101CEB2C5F18000B04202DA0026B81C9C
:10246000C7B2641C2078202802DB20787E28E5DDB6
:10247000F0BD10B50246012000E050430B1EA1F153
:102480000104E1B2F9D110BD2DE9F04F06468A46AC
:1024900091461F46099C00252CE0781B401EC1B2C6
:1024A0000A20FFF7E6FFB9FBF0F00A21B0FBF1F2DA
:1024B00001FB1208B8F1000F0CD1A34604EBDB714D
:1024C000491001FB0561C8B2234630225146FFF78F
:1024D0002DFF0DE0A34604EBDB71491001FB056104
:1024E000C8B208F13001CAB223465146FFF71EFFB9
:1024F000681CC5B2BD42D0DBBDE8F08F2DE9FF4FAF
:102500000746884691461C464FF0000B0297CDF8CF
:1025100004802046E11704EB5171C1F3C70100911B
:1025200060E009FB04F0C11700EB51710BEBE10116
:10253000CEB20BF1010000F0FF0B002550E0102C93
:1025400005D1AD4800EB0610405D03901BE0182C50
:1025500007D106EBC600A94901EBC000405D03901E
:1025600011E0202C05D1A64800EBC610405D039079
:1025700009E0402C05D1A34800EB4620405D0390C4
:1025800001E0BDE8FF8F4FF0000A17E0039800F06C
:10259000010020B141463846FFF7DCFD03E041462B
:1025A0003846FFF7F2FD03984010039008F1010050
:1025B00000F0FF080AF1010000F0FF0ABAF1080F6D
:1025C000E4DB781CC7B20298381AA04204D1029FFB
:1025D00001980830C0B20190DDF80480681CC5B2D3
:1025E000A542ACDB0098411EC9B20091002898D1E9
:1025F00000BFC6E7804689460026002749E03FB96C
:102600001023324618218020FFF778FF701CC6B2D5
:10261000464522D14FF0000A1AE0002410E00025C0
:102620000AE0794800EBC400415D601E764A02EB87
:10263000C0004155681CC5B2082DF2DB601CC4B255
:10264000902CECDBFFF74EFD0AF1010000F0FF0AD1
:102650004FEA09105045E0DC0026781CC7B2102F65
:1026600000D10027002410E000250AE0664800EBB6
:10267000C400415D601E644A02EBC0004155681C05
:10268000C5B2082DF2DB601CC4B2902CECDBFFF766
:1026900029FDB4E770B504460D4605F1B001C8B296
:1026A0000021FFF7A3FC102141EA14100021FFF7DD
:1026B0009DFC04F00F000021FFF798FC70BD08B5E9
:1026C00001210820FEF788FD4BF20300ADF8000061
:1026D00010208DF8030003208DF8020069464B4856
:1026E000FEF7BEFA4BF203014848FEF766FB0121F4
:1026F0004648FEF762FB6420FFF74BFC012143488C
:10270000FEF75DFBC820FFF744FC01213F48FEF7C0
:1027100054FB0021AE20FFF769FC00210846FFF7BB
:1027200065FC00211020FFF761FC00214020FFF72D
:102730005DFC00218120FFF759FC0021CF20FFF72D
:1027400055FC0021A120FFF751FC0021C820FFF714
:102750004DFC0021A620FFF749FC0021A820FFF72F
:1027600045FC00213F20FFF741FC0021D320FFF76B
:102770003DFC00210846FFF739FC0021D520FFF77A
:1027800035FC00218020FFF731FC0021D920FFF724
:102790002DFC0021F120FFF729FC0021DA20FFF7B2
:1027A00025FC00211220FFF721FC0021DB20FFF790
:1027B0001DFC00214020FFF719FC00212020FFF71D
:1027C00015FC00210220FFF711FC00218D20FFF7EE
:1027D0000DFC00211420FFF709FC0021A420FFF7C5
:1027E00005FC0021A620FFF701FC0021AF20FFF728
:1027F000FDFBFFF79AFC08BD4C000020CC02002036
:10280000A4030020A4050020AC150020000C01400A
:1028100008B501210420FEF7DFFC0220ADF800001E
:1028200000208DF8030069466248FEF719FA01217D
:102830000420FEF7D1FC0420ADF8000000208DF844
:10284000030069465B48FEF70BFA08BD00B591B07E
:1028500001210846FEF7B3FC01214802FEF7BCFC4B
:1028600001218802FEF7B8FC5348FDF7E1FF534809
:1028700006905348079000200890012009900020FE
:102880000A9080200B9080000C9080000D902020FA
:102890000E9000020F900020109006A94648FEF707
:1028A00069F801214448FEF790F84FF4C0200190E8
:1028B00001208DF808008DF809004FF46020039086
:1028C0000020049001208DF8140001A93B484C38E9
:1028D000FDF7ADFD4FF44040FEF7E2FB0723012278
:1028E000114636484C38FDF73AFE012133484C3842
:1028F000FDF7D4FD4FF4C020019001208DF80800B1
:102900008DF809004FF4602003900020049001200E
:102910008DF8140001A92B48FDF789FD4FF44040C4
:10292000FEF7BEFB0723012202212648FDF717FE12
:1029300001212448FDF76FFE012120484C38FDF7A6
:10294000A2FD1E484C38FDF7C0FD00BF1B484C38A7
:10295000FDF7C0FD0028F9D118484C38FDF7C4FD3B
:1029600000BF16484C38FDF7C4FD0028F9D10121FD
:102970001448FDF788FD1348FDF7A7FD00BF114877
:10298000FDF7A8FD0028FAD10E48FDF7ADFD00BF08
:102990000C48FDF7AEFD0028FAD1012107484C385C
:1029A000FDF7B1FD11B000BD10B5FFF731FFFFF726
:1029B0004DFF10BD00080140080002404C240140BA
:1029C000A41500200028014080EA010210B502F0A1
:1029D0000043400022D04A001FD0010E01EB1261DB
:1029E000C0F35600C2F3560240F4000042F4000265
:1029F000A0FB022000047F39140400D0401C50EAE0
:102A0000124001D44000491EC2B20C0604EBD010A3
:102A1000401C4008802A02D003E0002010BD20F0B6
:102A20000100002900DA0020184310BD30B480EA0C
:102A3000010202F0004530F0004221F0004013D0C6
:102A400090B1C30DD40DC2F31601C0F31600E41A01
:102A500041F4000140F400027D34914201D3641C32
:102A600000E04900002C02DA30BC002070474FF42F
:102A700000000023914201D3891A034340084FEA22
:102A80004101F7D151B1914202D14FF0004105E02F
:102A900002D24FF0010101E06FF0010103EBC450DD
:102AA000284430BC00F0E6B92DE9FE4F804681EAAB
:102AB0000300C00F0C46009021F0004123F00045B8
:102AC000B8EB0200A94105D24046214690461C467B
:102AD0000B46024623F00040104347D0270DC7F3B2
:102AE0000A00C3F30A510290401A019040286BDAA1
:102AF000C3F3130040F4801B0098924620B10023DA
:102B0000D2EB030A63EB0B0B01985946C0F140026C
:102B1000504600F08EF906460D4650465946019A39
:102B200000F096F910EB08006141002487EA115289
:102B300084EAE7731A4340D0009A62B3019A012AEB
:102B40004FEA075215DC001B61EB02014FF0004217
:102B500002EA0752CDE90042001C41F580113246DD
:102B60002B4600F0CDF903B0BDE8F08F404621467A
:102B7000F9E7001B61EB0201001C41F5801300180E
:102B80005B412018A2F5001747EB030140EAD5701E
:102B9000B6196D4111E06D084FEA360645EAC07579
:102BA0004FEA0752001B61EB0201001C41F5801146
:102BB00049084FEA30000019514132462B4603B014
:102BC000BDE8F04F00F08DB90098012240000023CD
:102BD000D0EB020263EBE073009821464FEAE07409
:102BE000B8EB000061EB0401E9E783F000435BE729
:102BF00081F0004158E72DE9FE4F81EA030404F01B
:102C0000004421F0004100944FF0000B23F00043FA
:102C100050EA01045ED052EA03045BD0C3F30A54C5
:102C2000C1F30A552C44A4F2F3340194A0FB0254DE
:102C3000C1F3130141F48011C3F3130343F4801370
:102C400001FB024400FB034E840A970A44EA8154C4
:102C500047EA8357A4FB076802958D0A05FB0785A1
:102C60004FEA932C04FB0C542705029D4FEA0658AB
:102C700047EA1637B5EB08056EEB070C870E920E88
:102C800047EA811742EA8312A7FB0201B6EB0B0168
:102C900064EB00042B0D43EA0C335E1844EB1C502C
:102CA000DA465146E7FB0201C5F313044FEA0B3342
:102CB00043EA14534FEA0432019C43EA0603A4F1A9
:102CC0000C040294009CCDE900B400F019F903B0A3
:102CD000BDE8F08F00200146F9E7C10F80EAE070FF
:102CE0000844CA079623002100F0CDB8962300229D
:102CF000114600F0C8B820F00040C10DC0F3160026
:102D000040F400007F2901DA00207047962903DC97
:102D1000C1F19601C840704796398840704700F06D
:102D2000004230F000400AD0C10D01F56071C0F3DF
:102D3000160042EA0151C2084007114370470020C3
:102D40000146704701F0004330B421F0004150EAE1
:102D5000010206D00A0DA2F56072C1F31301002A28
:102D600002DC30BC00207047440F44EAC104C100BB
:102D7000E01830BC00EBC25000F07CB8002801DB4A
:102D8000C0F10040002901DBC1F1004181427047E0
:102D9000002801DBC0F10040002901DBC1F1004146
:102DA0008842704730B50B4601460020202201249E
:102DB00009E021FA02F59D4205D303FA02F5491B09
:102DC00004FA02F52844151EA2F10102F1DC30BD1F
:102DD0002DE9F05F0546002092469B468846064650
:102DE000814640241BE0284641464746224600F0E3
:102DF00087F953465A46C01A914110D311461846D6
:102E0000224600F016F82D1A67EB01084F462246BD
:102E10000120002100F00DF817EB00094E41201EA3
:102E2000A4F10104DFDC484631462A464346BDE8AA
:102E3000F09F202A04DB203A00FA02F100207047BC
:102E40009140C2F1200320FA03F3194390407047E8
:102E5000202A06DBCB17203A41FA02F043EAE0735E
:102E600006E041FA02F3D040C2F12002914008434B
:102E7000194670470029A8BF7047401C490008BF89
:102E800020F00100704710B4B0FA80FC00FA0CF09A
:102E900050EA010404BF10BC704749B1CCF12004D2
:102EA00021FA04F411FA0CF118BF0121214308435F
:102EB000A3EB0C01CB1D4FEA00614FEA102042BF8B
:102EC000002010BC704700EBC35010440029A4BF81
:102ED00010BC7047401C490008BF20F0010010BC26
:102EE000704710B5141E73F1000408DA401C41F15C
:102EF000000192185B411A4301D120F0010010BD7E
:102F00002DE9F04D92469B4611B1B1FA81F202E0F3
:102F1000B0FA80F220329046FFF78BFF04460F464E
:102F200040EA0A0041EA0B0153465A46084313D0CF
:102F3000114653EA010019D0C8F14002504600F092
:102F4000DFF805460E46504659464246FFF771FFE8
:102F5000084305D0012004E020463946BDE8F08D45
:102F60000020054346EAE0762C4337430A98630580
:102F7000E40AA0EB08000022FD0A44EA47540A30A4
:102F800002D500200146E9E7010510196941DDE994
:102F9000084500196941BDE8F04DA2E72DE9F04D63
:102FA00081EA030404F0004B21F0004514464FF081
:102FB000000A23F0004150EA050220D054EA010241
:102FC0001DD0C5F30A570246C5F31303C1F313001E
:102FD000C1F30A5640F4801543F48013A7EB0608AA
:102FE000101BD64608F2FD3873EB050002D308F13A
:102FF000010801E092185B41B8F1000F03DA0020EC
:103000000146BDE8F08D00204FF48011064684464D
:103010000EE0171B73EB050705D3121B63EB0503CB
:1030200006434CEA010C49084FEA300092185B4114
:1030300050EA0107EDD152EA030012D082EA0400FF
:1030400083EA0501084305D0101BAB4106D20122DB
:10305000002306E000224FF0004302E06FF001027F
:1030600053101AEB06004CEB085110EB0A0041EB31
:103070000B01BDE8F04DFFF734BFC1F30A52C1F3B5
:10308000130140F2FF3341F480119A4202DA00202A
:103090000146704740F233439A42A2F2334202DCC7
:1030A000524200F02DB8FFF7C4BE000030B5041E38
:1030B00071F1000404DB4FF00044404264EB010175
:1030C000141E73F1000405DB1C464FF0004352420E
:1030D00063EB0403994208BF904230BD064C074D94
:1030E00006E0E06840F0010394E8070098471034D8
:1030F000AC42F6D3FCF7FEFF2C5200084C520008FD
:10310000202A04DB203A21FA02F00021704721FA3C
:1031100002F3D040C2F120029140084319467047A3
:1031200070B58C1810F8015B15F0070301D110F889
:10313000013B2A1106D110F8012B03E010F8016BB6
:1031400001F8016B5B1EF9D12B0705D40023521E39
:103150000DD401F8013BFAE710F8013BCB1A921CA1
:1031600003E013F8015B01F8015B521EF9D5A1429F
:10317000D8D3002070BD00000FB4054B10B503A9D3
:10318000044A029800F0DAF810BC5DF814FB000065
:10319000D51E0008A815002002E008C8121F08C1AB
:1031A000002AFAD170477047002001E001C1121FC8
:1031B000002AFBD1704700002DE9FF5F82B000219B
:1031C000DDE90430020DDDF840B0034318D044F6C9
:1031D0001050A2F2FF3242431514119801281FD05B
:1031E000A5EB0B00401C5FEA000A4FF000064E4FB3
:1031F000DFF83891B046504615D5CAF1000413E007
:10320000119801244AA3012801D16FEA0B01029809
:10321000119AC0E90031C0E9024206B0BDE8F09F52
:10322000CBF10000DFE704460021404A491842EB99
:103230000450CDE9001012E0E00707D032463B46CB
:1032400040464946FFF7D7FC8046894632463B4612
:1032500010461946FFF7CFFC06460F466410002CB7
:10326000EAD1DDE90401DDE90023BAF1000F06DA55
:10327000FFF7C1FC42464B46FFF7BDFC05E0FFF7F8
:103280008DFE42464B46FFF789FE04460E4600225D
:10329000284BFFF70BFF03D84FF0FF30014607E044
:1032A0000022254B20463146FFF7FEFBFFF7E5FEE7
:1032B000102409E0002C0ADB0A220023FFF788FD16
:1032C000039B30321A55641E50EA0102F2D1641C8D
:1032D000039AC4F111031444119A012A03D0012264
:1032E00008430DD10AE0084304D000204FF0110B31
:1032F000119072E7A3EB0B056D1E0DE05B4504DD3D
:103300004FF0000205F1010504E003DA4FF000027E
:10331000A5F10105002AECD002981199C0E902310B
:10332000C0E9004579E70000000014400000F03FCC
:10333000300000000000F0430000E03F2DE9FF4FA7
:1033400095B09B468946064600250FE2252877D191
:1033500000242746F84A0121059400E0044316F8AA
:10336000013F203B01FA03F01042F7D130782A28C0
:1033700011D06FF02F033078A0F13002092A16D84F
:10338000059A44F0020402EB820203EB420210446D
:10339000761C0590EFE759F8042B0592002A03DA12
:1033A000504244F40054059044F00204761C3078F6
:1033B0002E2816D116F8010F44F004042A280DD047
:1033C0006FF02F023078A0F13003092B09D807EBFA
:1033D000870302EB4303C718761CF3E759F8047B15
:1033E000761C30786C280FD006DC4C2817D0682863
:1033F0000DD06A2814D104E0742810D07A280FD197
:103400000DE044F400140AE044F4801401E044F4B4
:1034100040147278824202D104F58014761C761C26
:10342000307866280BD013DC582877D009DC0028C8
:1034300075D04528F6D04628F4D047281AD19DE10A
:1034400018E0632835D0642879D0652812D195E139
:10345000702873D008DC6728F1D069286FD06E28F7
:103460000DD06F2806D1B5E073282CD0752875D003
:10347000782874D05A46179990476D1C75E1C4F3AB
:103480000250022809D003280DD0D9F800100428D2
:103490000DD00D6009F1040967E1D9F80010EA17B1
:1034A000C1E90052F6E7D9F800100D80F2E70D707F
:1034B000F0E719F8041B8DF8001000208DF80100CA
:1034C000EA46012003E059F804AB4FF0FF306107F2
:1034D0004FF0000102D40DE008F101018846B94225
:1034E0000FDA8045F8DB1AF808100029F4D108E05B
:1034F00008F1010188468142FADB1AF80810002918
:10350000F6D105985B46A0EB080721463846179A86
:1035100000F094FA284400EB080507E04DE029E1AB
:103520000DE01AF8010B5A4617999047B8F10108B7
:10353000F7D25B4621463846179A13E142E00A2249
:103540000092C4F302524FF0000A022A08D059F840
:1035500004CB032A4FEAEC710AD00DE029E02AE0FF
:1035600009F1070121F00702F2E802C1914609E0E2
:103570000FFA8CFC4FEAEC71042A03D14FFA8CFC51
:103580004FEAEC71002907DA0A460021DCF1000C51
:1035900061EB02012D2202E0220504D52B228DF8D9
:1035A0000420012203E0E20701D02022F7E7904641
:1035B00059E00A2102E010220DE010214FF0000A2C
:1035C00000910BE010224FF0000A44F00404082799
:1035D000009203E008224FF0000A0092C4F3025266
:1035E000022A05D059F804CB0021032A08D009E0AB
:1035F00009F1070121F00702F2E802C1914605E056
:103600001FFA8CFC042A01D10CF0FF0C4FF00008CB
:10361000220728D5702806D0009B83F0100353EAB8
:103620000A0305D00EE040228DF80420012208E0B4
:103630005CEA010206D030228DF804208DF80500E6
:1036400002229046009B83F0080353EA0A030AD142
:103650005CEA010201D1620705D530228DF8042011
:103660004FF001087F1E582804D034A003900EA804
:1036700002900DE036A0F9E753466046009AFFF746
:10368000A7FB84460398825C0298401E0290027059
:103690005CEA0100F0D1029806A9081A00F1200A9C
:1036A000600702D524F4803400E00127574502DD8D
:1036B000A7EB0A0000E0002000EB0A01009005984B
:1036C0004144401A0590E00306D45B462146179A10
:1036D000059800F0B3F90544002706E001A85A4612
:1036E000C05D179990476D1C7F1C4745F6DBE003D2
:1036F0000CD55B462146179A059800F09FF90544C2
:1037000004E030205A46179990476D1C0099481ED6
:1037100000900029F5DC08E0029802995A460078EA
:10372000491C0291179990476D1CBAF10001AAF14A
:10373000010AF1DC65E10000092801003031323373
:1037400034353637383961626364656600000000DD
:1037500030313233343536373839414243444546C7
:103760000000000000F058F90544761C307800286D
:103770007FF4ECAD19B02846BDE8F08F620700D4A5
:10378000062709F1070222F0070CFCE80223E146B4
:1037900003F000485FEA080C02D00FF2702C0DE035
:1037A0005FEA045C02D50FF2682C07E05FEAC47C94
:1037B00002D00FF2602C01E0AFF2700C4FF0FF3836
:1037C00023F00043CDF850C065280CD006DC452816
:1037D00009D046281DD047283DD13DE0662818D0A5
:1037E00067287ED138E00021112F01DB112000E095
:1037F000781CCDE9000106A90EA8FFF7DDFCDDE984
:103800000F010E9A03910021009207F1010A049121
:103810004DE04FF000400097CDE9011006A90EA839
:10382000FFF7CAFCDDE90F0203920E9B11990022FB
:10383000DDF80CA00093049211B9791C00EB010A89
:10384000B7EB0A0004D4C0F1FF3007F1010A04907D
:10385000AAEB0700019044E0012F00DA01270021C4
:10386000112F01DD112000E03846CDE9000106A945
:103870000EA8FFF7A1FCDDE90F010E9A03910021CC
:1038800004910092BA4621070CD40399514500DAFD
:103890008A46BAF1010F05DD009AAAF10101515CD7
:1038A000302908D0B84202DA10F1040F06DA0121FB
:1038B000CDE9011015E0AAF10101E9E7002805DCD6
:1038C000049901440491AAEB000102E0411C514516
:1038D00000DD8A460499401A401C01904FF00040D8
:1038E0000290200704D40198504501DBCDF80480F4
:1038F00000208DF84F0002980DF14F07B0F1004FF6
:1039000025D02B200E9002984FF0020800280CDAE8
:10391000404202902D200E9007E00A210298FFF706
:1039200041FA3031029007F8011DB8F10001A8F109
:103930000108F2DC02980028EFD1791E0E98087079
:10394000307800F0200040F0450007F8020D12A882
:10395000C01B00F107081498007800B1012000EBAB
:103960000A01019801EBE07105984144401A401E9C
:103970000590E00306D45B462146179A059800F0AF
:103980005DF805441498007818B15A461799904785
:103990006D1CE00324D55B462146179A059800F07C
:1039A0004DF805441CE00498002807DBDDE903011D
:1039B000884203DD0098405C179901E01799302098
:1039C0005A469047049805F10105401C049001985F
:1039D000401E019004D12E205A46179990476D1C25
:1039E000BAF10001AAF1010ADDDC05E017F8010BCC
:1039F0005A46179990476D1CB8F10001A8F10108CB
:103A0000F4DC5B462146179A0598ABE62D000000D2
:103A10002B000000200000002DE9F04104460025A5
:103A20001E461746880404D405E039462020B047D6
:103A30006D1C641EF9D52846BDE8F0812DE9F041E2
:103A4000044600251E469046C80301D5302700E0F5
:103A50002027880404D505E041463846B0476D1C50
:103A6000641EF9D52846BDE8F08100000000000082
:103A7000000000000000000000003F4000000000C7
:103A8000000000003000400030004000000009004D
:103A90000BC03D000BC03D00090018C024407FE072
:103AA000224031800000180024C01B000D803240ED
:103AB000018003801C4027401C800740004010000C
:103AC0006000000000000000000000000000000096
:103AD0001F80204040200000402020401F80000028
:103AE0000000090006001F80060009000000040015
:103AF00004003F800400040000000010006000008B
:103B000000000000000004000400040004000400A1
:103B10000000000000400000000000000000002045
:103B200001C006003800400000001F8020402040F7
:103B300020401F800000000010403FC000400000F7
:103B4000000018C02140224024401840000010808E
:103B50002040244024401B80000002000D00110082
:103B60003FC0014000003C8024402440244023808A
:103B700000001F80244024403440038000003000B7
:103B8000200027C03800200000001B802440244073
:103B900024401B8000001C0022C0224022401F80C5
:103BA00000000000000008400000000000000000CD
:103BB00000000460000000000000000004000A0093
:103BC0001100208040400900090009000900090097
:103BD000000000004040208011000A00040018008E
:103BE000200023402400180000001F8020402740B0
:103BF00029401F400000004007C039000F0001C0ED
:103C0000004020403FC0244024401B8000001F8013
:103C10002040204020403080000020403FC0204015
:103C200020401F80000020403FC024402E4030C074
:103C3000000020403FC024402E00300000000F0054
:103C40001080204022403380020020403FC004000A
:103C500004003FC02040204020403FC02040204082
:103C600000000060202020203FC0200020002040D5
:103C70003FC024400B0030C0204020403FC02040C7
:103C80000040004000C03FC03C0003C03C003FC0BB
:103C9000000020403FC00C4023003FC020001F8098
:103CA0002040204020401F80000020403FC0244092
:103CB0002400180000001F802140214020E01FA0A8
:103CC000000020403FC02440260019C0004018C01A
:103CD00024402440224031800000300020403FC07A
:103CE00020403000000020003F80004000403F8026
:103CF000200020003E0001C00700380020003800EE
:103D000007C03C0007C038000000204039C0060052
:103D100039C0204000002000384007C03840200053
:103D20000000304021C02640384020C00000000084
:103D300000007FE0402040200000000070000C00E8
:103D40000380004000000000402040207FE0000091
:103D500000000000200040002000000000000010D3
:103D600000100010001000100010000000004000C3
:103D7000000000000000000002800540054003C074
:103D8000004020003FC004400440038000000000C9
:103D9000038004400440064000000000038004400B
:103DA00024403FC000400000038005400540034020
:103DB0000000000004401FC02440244020000000F8
:103DC00002E0055005500650042020403FC004404A
:103DD000040003C000400000044027C00040000071
:103DE000000000100010041027E000000000204038
:103DF0003FC00140070004C00440204020403FC0B5
:103E000000400040000007C0040007C0040003C0D9
:103E10000000044007C00440040003C0004000004C
:103E200003800440044003800000041007F00450A5
:103E3000044003800000000003800440045007F0A9
:103E40000010044007C0024004000400000000000D
:103E500006400540054004C00000000004001F802B
:103E6000044000400000040007800040044007C0F8
:103E700000400400070004C00180060004000600A2
:103E800001C0070001C006000000044006C0010098
:103E900006C0044000000410071004E00180060082
:103EA00004000000044005C006400440000000007B
:103EB000000004007BE04020000000000000000043
:103EC000FFF000000000000040207BE00400000044
:103ED0000000400080004000200020004000000062
:103EE00000000000000000000000000000000000D2
:103EF000000000001FCC000C0000000000000000CB
:103F0000080030006000080030006000000002205F
:103F100003FC1E20022003FC1E20022000000000E3
:103F20000E1811043FFF10840C78000000000F00F1
:103F300010840F3800C007781884007800000078DB
:103F40000F8410C411240E9800E4008400080800B7
:103F50006800700000000000000000000000000089
:103F60000000000007E018182004400200000000D4
:103F700040022004181807E0000000000000024082
:103F8000024001800FF001800240024000000080EA
:103F9000008000800FF80080008000800000000199
:103FA000000D000E000000000000000000000000F6
:103FB0000080008000800080008000800080000081
:103FC000000C000C000000000000000000000000D9
:103FD00000060018006001800600180020000000A4
:103FE00007F0080810041004080807F0000000009B
:103FF000080408041FFC0004000400000000000086
:104000000E0C10141024104411840E0C000000003B
:104010000C1810041104110412880C700000000028
:1040200000E00320042408241FFC002400000000FA
:104030001F981084110411041088107000000000F3
:1040400007F00888110411041888007000000000AF
:104050001C00100010FC13001C00100000000000E9
:104060000E3811441084108411440E3800000000F2
:104070000700088C10441044088807F00000000076
:1040800000000000030C030C000000000000000012
:104090000000000101060000000000000000000018
:1040A00000800140022004100808100400000220D3
:1040B0000220022002200220022002200000000034
:1040C00010040808041002200140008000000000D5
:1040D0000E001200100C106C10800F00000003E0A6
:1040E0000C1813E4142417C4082807D00000000497
:1040F000003C03C41C40074000E4001C0004100402
:104100001FFC1104110411040E880070000003E06C
:104110000C1810041004100410081C1000001004E7
:104120001FFC100410041004080807F0000010041D
:104130001FFC1104110417C4100408180000100417
:104140001FFC1104110017C010000800000003E05C
:104150000C181004100410441C78004000001004D7
:104160001FFC10840080008010841FFC10040000DD
:10417000100410041FFC10041004000000000003D1
:104180000001100110011FFE1000100000001004BB
:104190001FFC110403801464181C10040000100498
:1041A0001FFC1004000400040004000C00001004B4
:1041B0001FFC1F0000FC1F001FFC10040000100467
:1041C0001FFC0C04030000E010181FFC100007F097
:1041D0000808100410041004080807F00000100478
:1041E0001FFC10841080108010800F00000007F06A
:1041F000081810241024101C080A07F200001004EC
:104200001FFC1104110011C011300E0C000400003D
:104210000E1C11041084108410441C380000180077
:10422000100010041FFC1004100018000000100003
:104230001FF810040004000410041FF81000100000
:104240001E0011E0001C007013801C0010001FC035
:10425000103C00E01F0000E0103C1FC000001004F4
:10426000180C163401C001C01634180C10041000CC
:104270001C00130400FC13041C00100000000804C0
:10428000101C1064108413041C041018000000009B
:10429000000000007FFE40024002400200000000DB
:1042A00030000C0003800060001C000300000000D0
:1042B0004002400240027FFE0000000000000000BB
:1042C00000002000400040004000200000000001ED
:1042D00000010001000100010001000100010000D7
:1042E000400040002000000000000000000000002E
:1042F0000098012401440144014400FC0004100022
:104300001FFC008801040104008800700000000008
:10431000007000880104010401040088000000000E
:10432000007000880104010411081FFC0004000053
:1043300000F8014401440144014400C800000000A9
:10434000010401040FFC1104110411001800000005
:1043500000D601290129012901C901060000100424
:104360001FFC008401000100010400FC00040000A7
:104370000104190419FC00040004000000000000FE
:10438000000300010101190119FE000000001004E2
:104390001FFC0024004001B4010C010400000000D7
:1043A000100410041FFC00040004000000000104BD
:1043B00001FC0104010001FC0104010000FC0104F6
:1043C00001FC008401000100010400FC0004000065
:1043D00000F8010401040104010400F800000101D7
:1043E00001FF008501040104008800700000000046
:1043F0000070008801040104010501FF00010104AF
:10440000010401FC0084010401000180000000009F
:1044100000CC0124012401240124019800000000A3
:104420000100010007F80104010400000000010080
:1044300001F8000400040004010801FC000401006C
:1044400001800170000C001001600180010001F08A
:10445000010C003001C00030010C01F0010000002F
:104460000104018C00740170018C01040000010141
:1044700001810171000E001801600180010000003F
:104480000184010C013401440184010C000000008E
:1044900000000000000001003EFC4002400200005D
:1044A000000000000000FFFF00000000000000000E
:1044B000400240023EFC010000000000000000003D
:1044C00060008000800040004000200020000000CC
:1044D00000000000000000000000000000000000DC
:1044E00000000000000000000000000000000000CC
:1044F00000000000000000000000000000000000BC
:10450000000F80380FFE380F8038000000000000D8
:104510000000000000000000000000000100000694
:1045200000000C00003800003100000600000C0004
:104530000038000030000000000000000000618032
:104540000067F807F98000618000618000618000E9
:1045500061800067F807F9800061800000000000BA
:104560000000000001C0E003E0F006300804180875
:104570001FFFFE040E080787F00381E00000000023
:10458000000001F000060C00040408060C7001F99C
:10459000C0000E00003BE000EC18070808040C18EF
:1045A0000003E00000000001E00007F003F8180439
:1045B0001C0804170807E1D003C0E00023B0003C4A
:1045C00008002008000010000000000000010000AA
:1045D0003100003200001C0000000000000000005C
:1045E00000000000000000000000000000000000CB
:1045F00000000000000000000000000000007F003C
:1046000001FFC00780F00C00181000042000020019
:1046100000000000002000021000040C00180780B9
:10462000F001FFC0007F000000000000000000005B
:1046300000000000000000000000420000660000D2
:104640006600003C0000180003FFC0001800003C9A
:104650000000660000660000420000000000080044
:1046600000080000080000080000080001FFC0006A
:104670000800000800000800000800000800000012
:104680000000000100003100003200001C000000AA
:10469000000000000000000000000000000000001A
:1046A00000000000000008000008000008000008EA
:1046B00000000800000800000800000800000800D2
:1046C00000080000000000000000000000003800AA
:1046D000003800003800000000000000000000006A
:1046E00000000000000000000000000000000006C4
:1046F00000001C000070000180000E000038000067
:10470000C0000700001C0000300000000000000096
:1047100000007F8001FFE00380700600180400089D
:1047200004000806001803807001FFE0007F80008D
:104730000000000000000000010008010008010066
:104740000803FFF807FFF800000800000800000851
:1047500000000000000000000001C03802C0580442
:104760000098040118040218040418061C1803F821
:104770001801E0F800000000000000000001C0E0A7
:1047800003C0F00400080408080408080618080319
:10479000F41801E7F00001E0000000000000000054
:1047A00000000300000D00001100006100008108FE
:1047B00003010807FFF80FFFF800010800010800D7
:1047C00000000000000000E007FCD006080806100A
:1047D00008061008061008061838060FF00607C06D
:1047E000000000000000000000003F8001FFE00327
:1047F0008430020818041008041008041008071870
:1048000010030FF00007C0000000000000000000CF
:1048100003C0000700000600000600F80607F806BF
:10482000180006E00007000006000000000000007D
:104830000001E1E003F7F00634100418080418083A
:10484000040C08040C0806161803F3F001C1E0007C
:10485000000000000000F80003FC300306380402EA
:10486000080402080402080404100308F001FFC051
:10487000007F0000000000000000000000000000B9
:104880000000000000007038007038007038000030
:104890000000000000000000000000000000000018
:1048A00000000000000000000000301A00301C0072
:1048B00000000000000000000000000000000000F8
:1048C0000000000000080000140000220000410069
:1048D0000080800100400200200400100800080051
:1048E0000000000000002100002100002100002144
:1048F0000000210000210000210000210000210013
:104900000021000000000000000000000800080472
:1049100000100200200100400080800041000022C1
:104920000000140000080000000000000003C000A8
:1049300004C000040000080038080F3808083808D0
:1049400010000C300007E00003C000000000000071
:1049500000003F8000FFE0038070020F10067088A7
:1049600004C088048308047F8802C09003012000EB
:10497000FE400000080000180001F8003E0801C2D7
:104980000007020007E20000FE00001FC80001F857
:1049900000003800000804000807FFF807FFF804CB
:1049A000080804080804080804080806180803F49E
:1049B0001801E7F00001E0000000000000003F8067
:1049C00001FFE003807002001804000804000804DE
:1049D00000080400100600200780C000000004004A
:1049E0000807FFF807FFF80400080400080400089F
:1049F00004001802001003807001FFE0007F8000B7
:104A0000000004000807FFF807FFF804080804087E
:104A100008040808040808043E08040008060018F2
:104A200001006000000004000807FFF807FFF80419
:104A30000808040800040800040800043E000600FA
:104A400000060000018000000000000000003F8020
:104A500001FFE00380700600180400080402080447
:104A600002080203F00783F00002000002000400C5
:104A70000807FFF807FFF80408080008000008000E
:104A800000080000080004080807FFF807FFF80402
:104A900000080000000000000400080400080400F2
:104AA0000807FFF807FFF8040008040008040008DE
:104AB00000000000000000000000000600000700E9
:104AC000000104000104000104000307FFFE07FFCA
:104AD000FC04000004000004000004000807FFF8C4
:104AE00007FFF8040C08001800003E0004C780050A
:104AF00003C80600F8040038040018000008040089
:104B00000807FFF807FFF804000800000800000885
:104B10000000080000080000080000180000600005
:104B2000000004000807FFF807800807FC00007F6A
:104B3000C00003F80007C000780007800807FFF8EE
:104B400007FFF804000804000807FFF8070008033F
:104B5000C00000E000003800001E00000700000157
:104B6000C00400F007FFF8040000000000007F8090
:104B700001FFE00380700600180400080400080626
:104B8000001803003001FFE0007F800000000400F7
:104B90000807FFF807FFF8040408040400040400F1
:104BA000040400040400060C0003F80001F00000F7
:104BB0000000000000007F8001FFE003807006001D
:104BC000880400880400C806003C03003E01FFE69C
:104BD000007F8400000004000807FFF807FFF804C6
:104BE0000808040800040C00040F00040BC00610A1
:104BF000F003F03801E00800000800000001E0F8D0
:104C000003F030063010041808041808040C0804D7
:104C10000C080206180207F00781E000000001807E
:104C20000006000004000004000004000807FFF86C
:104C300007FFF8040008040000040000060000015B
:104C4000800004000007FFE007FFF00400180000E8
:104C50000800000800000800000800000804001018
:104C600007FFE004000004000006000007E0000762
:104C7000FE00041FE00001F80000380001E0043EDF
:104C80000007C00006000004000004000007E00068
:104C900007FFC0041FF80007C007F80007FF8004E3
:104CA0003FF80007C004F8000700000400000000FF
:104CB0000004000806001807C07805F1C8003E008F
:104CC000001F800463E80780F8060018040008004D
:104CD000000004000006000007800007E008047CD4
:104CE00008001FF80007F800180804E00807000093
:104CF000060000040000000000010008060038045F
:104D000000F80403E8040F08047C0805F00807C055
:104D10000807001804006000000000000000000008
:104D20000000000000000000003FFFFE2000022005
:104D3000000220000220000220000200000000000B
:104D40000000000008000007000000C0000038005C
:104D50000006000001C000003000000E000001004D
:104D600000000000000000002000022000022000DF
:104D7000022000022000023FFFFE000000000000B1
:104D8000000000000000000000000000000000081B
:104D90000000100000300000200000300000100073
:104DA00000080000000000000000000001000001F9
:104DB00000000100000100000100000100000100EE
:104DC00000010000010000010000010000010000DE
:104DD0000000000000000020000020000010000083
:104DE00010000000000000000000000000000000B3
:104DF00000000000000000F00019F8001B1800225D
:104E000008002608002408002410003FF8001FF8BE
:104E100000000800001800000004000007FFF80F61
:104E2000FFF00018180010080020080020080030CB
:104E300018001FF0000FC00000000000000007C0B5
:104E4000001FF00018300020080020080020080093
:104E50003C08001C10000060000000000000000082
:104E6000000007C0001FF0003818002008002008CC
:104E700000200804101007FFF80FFFF000001000DA
:104E800000000000000000000007C0001FF000123A
:104E900030002218002208002208003208001E10EC
:104EA000000E20000000000000002000002008008C
:104EB000200801FFF803FFF806200804200804205A
:104EC0000807200003000000000000000000000EA2
:104ED000000E6E001FF30031B10020B10020B100C0
:104EE0003191001F13002E1E00200E003000000024
:104EF0000004000807FFF80FFFF80010080020006A
:104F0000002000002008003FF8001FF80000080003
:104F10000000000000000000002008002008002021
:104F200008063FF8063FF8000008000008000008E7
:104F3000000000000000000000000000000003006E
:104F40000003002001002001002003063FFE063F71
:104F5000FC00000000000000000000000004000849
:104F600007FFF80FFFF8000188000300002FC000C2
:104F700038F8002038002008000008000000000079
:104F80000000000004000804000804000807FFF8FF
:104F90000FFFF800000800000800000800000000F3
:104FA0000000002008003FF8003FF8001008002033
:104FB00000003FF8003FF8001008002000003FF814
:104FC000003FF8000008000000002008003FF80043
:104FD0003FF8001008001000002000002008003FEB
:104FE000F8001FF80000080000000000000007C0E3
:104FF000000FF000183000300800200800200800E2
:105000003008001830000FF00007C000000000005A
:1050100000002001003FFF003FFF001011002009A9
:10502000002008002008003038001FF0000FC000EA
:1050300000000000000007C0001FF000381800202A
:1050400008002008002009001011001FFF003FFF8A
:1050500000000100000000200800200800200800D7
:105060003FF8003FF8000808001008002008002062
:1050700000003000003000000000000000000000D0
:10508000000C78001E1800330800230800210800D7
:1050900021880021980030F00038600000000000F6
:1050A0000000200000200000200000FFF003FFF8B7
:1050B0000020080020080020080000300000000048
:1050C0000000000000002000003FF0007FF800001A
:1050D00018000008000008002010003FF8007FF0D2
:1050E0000000100000000000000020000030000060
:1050F0003C00003F800023F0000078000070002397
:1051000080003C00003000002000002000003C0037
:10511000003FE00023F80000E0002700003E000010
:105120003FE00021F80001E0003E00002000000008
:1051300000002008002008003838003E6800278062
:105140000003C8002CF800383800201800200800A0
:105150000000000000002000003003003C01003F80
:10516000830023EC000070002380003C000020003E
:1051700000200000000000000000000000380800CF
:1051800020380020F80023E8002F88003E0800386F
:10519000080020180000700000000000000000005F
:1051A0000000000000000000000008000014001FC4
:1051B000F7FC3000062000020000000000000000A4
:1051C00000000000000000000000000000000000DF
:1051D000FFFFFF00000000000000000000000000D2
:1051E00000000000000000002000023000061FF751
:1051F000FC00140000080000000000000000000097
:1052000000000000000000000018000060000040E6
:105210000000400000200000100000080000040012
:10522000000400000C000010000000004C520008B8
:1052300000000020AC15000020310008F8540008E0
:10524000AC15002084080000A83100081184A24A8F
:1052500004680901020304060708090C69102E02FC
:105260000406080114590402190A2809404848484C
:105270004C4CFC4401312A02013C42427F0822028C
:105280002BC0C8012009C02020FE7E2020E0180F7E
:10529000101C1310120E5860380F4040703F101849
:1052A0000D90FE901004E4AEAEA4AEAEE4971406EA
:1052B000037F100C43484B2A3A0E1A2A4BC8404A27
:1052C000100120083EFE10141C1010400F20612118
:1052D0003F3F111110031E306040701FF898989ED8
:1052E0009E980162F85B7F24014A7FA029013BFE62
:1052F000FE07313A60014B7F7F081950180D20FCE2
:105300002004B4B4F4B686F4B4B480180E080807C8
:105310002424165E7F661E377E56D11540C4880849
:105320003BFC94012AFC40280E3804404658407E3D
:1053300040407E5058467F2F084848F8484E052A7E
:105340004820123F200C84444D5D3525554D444086
:10535000C0280F8080D8B0A080FEFE80A0B09888C2
:10536000808F1D60301C07A6198F33603015FC44F8
:1053700044FC2F44E4BC84C4C46017407704043761
:10538000601F073464041477B116E4E4243C3C3015
:10539000089E9292F292929E150141417F18084018
:1053A0004F44443F242428111A487919431F40FED2
:1053B0004044C85030180E0404C47F3F4242203796
:1053C0001C3C6643201540C68C082C7EFE4A012AF0
:1053D0007EA0300E300C06023F21392D2749C961CD
:1053E0003F2A04017008C4E424341C0C0C754040AE
:1053F0007F7F1808FFFEFCF8F0E0C0B95910C00824
:105400007F3F1F0F070301E3F8F82A33D781180EF7
:10541000F0F226A4A0A4A4FC242CBC2404E1180EC1
:105420007F7F1017141728301F1F3050406615C09B
:1054300060F80E180AE8E8A8BEAEA8E80808E0116F
:1054400019DF2B7F7FAF1B7F40D001224BC0800133
:105450004BFC84080336C0C01AFF7029014AFF07BD
:105460001B40FF9E013C034A7F700373FCF86CFFF6
:10547000FE02018BFFFF0B0268036C1F1F04017B00
:10548000FFFF0B02741F038C7F3F07FFF8F8F0F05B
:10549000702001E60214801AFF0109122C09132D55
:1054A00001FF01C0EDFFFFFE06011AFF01F91539EA
:1054B0001603FF070201D10C12FFFFFF140910159C
:1054C00009151601FF01C1EDFFFFFF1801191409AD
:1054D0001015391601FF01D204120201011AFF0151
:1054E000011209122A01FF01D71AFF0101FF01FD74
:0854F00005FF1F1F0F0F01E86B
:04000005080000ED02
:00000001FF
